{
  "_format": "hh-sol-artifact-1",
  "contractName": "Payment",
  "sourceName": "contracts/Payment.sol",
  "abi": [
    {
      "inputs": [
        {
          "internalType": "contract IFractional",
          "name": "_fractional",
          "type": "address"
        },
        {
          "internalType": "address",
          "name": "company",
          "type": "address"
        }
      ],
      "stateMutability": "nonpayable",
      "type": "constructor"
    },
    {
      "inputs": [
        {
          "internalType": "address",
          "name": "owner",
          "type": "address"
        }
      ],
      "name": "OwnableInvalidOwner",
      "type": "error"
    },
    {
      "inputs": [
        {
          "internalType": "address",
          "name": "account",
          "type": "address"
        }
      ],
      "name": "OwnableUnauthorizedAccount",
      "type": "error"
    },
    {
      "anonymous": false,
      "inputs": [
        {
          "indexed": true,
          "internalType": "address",
          "name": "previousOwner",
          "type": "address"
        },
        {
          "indexed": true,
          "internalType": "address",
          "name": "newOwner",
          "type": "address"
        }
      ],
      "name": "OwnershipTransferred",
      "type": "event"
    },
    {
      "anonymous": false,
      "inputs": [
        {
          "indexed": false,
          "internalType": "uint256",
          "name": "txId",
          "type": "uint256"
        },
        {
          "indexed": false,
          "internalType": "address",
          "name": "buyer",
          "type": "address"
        },
        {
          "indexed": false,
          "internalType": "uint256",
          "name": "homeId",
          "type": "uint256"
        },
        {
          "indexed": false,
          "internalType": "uint256",
          "name": "units",
          "type": "uint256"
        },
        {
          "indexed": false,
          "internalType": "uint256",
          "name": "amount",
          "type": "uint256"
        }
      ],
      "name": "Pay",
      "type": "event"
    },
    {
      "inputs": [
        {
          "internalType": "address",
          "name": "",
          "type": "address"
        }
      ],
      "name": "acceptedTokens",
      "outputs": [
        {
          "internalType": "bool",
          "name": "",
          "type": "bool"
        }
      ],
      "stateMutability": "view",
      "type": "function"
    },
    {
      "inputs": [],
      "name": "fractional",
      "outputs": [
        {
          "internalType": "contract IFractional",
          "name": "",
          "type": "address"
        }
      ],
      "stateMutability": "view",
      "type": "function"
    },
    {
      "inputs": [
        {
          "internalType": "uint256",
          "name": "txId",
          "type": "uint256"
        }
      ],
      "name": "fulfillTx",
      "outputs": [],
      "stateMutability": "nonpayable",
      "type": "function"
    },
    {
      "inputs": [
        {
          "internalType": "contract IERC20",
          "name": "payToken",
          "type": "address"
        },
        {
          "internalType": "uint256",
          "name": "homeId",
          "type": "uint256"
        },
        {
          "internalType": "uint256",
          "name": "units",
          "type": "uint256"
        }
      ],
      "name": "makePayment",
      "outputs": [],
      "stateMutability": "nonpayable",
      "type": "function"
    },
    {
      "inputs": [],
      "name": "owner",
      "outputs": [
        {
          "internalType": "address",
          "name": "",
          "type": "address"
        }
      ],
      "stateMutability": "view",
      "type": "function"
    },
    {
      "inputs": [],
      "name": "renounceOwnership",
      "outputs": [],
      "stateMutability": "nonpayable",
      "type": "function"
    },
    {
      "inputs": [
        {
          "internalType": "address",
          "name": "newOwner",
          "type": "address"
        }
      ],
      "name": "transferOwnership",
      "outputs": [],
      "stateMutability": "nonpayable",
      "type": "function"
    },
    {
      "inputs": [
        {
          "internalType": "uint256",
          "name": "txId",
          "type": "uint256"
        }
      ],
      "name": "txRecords",
      "outputs": [
        {
          "components": [
            {
              "internalType": "address",
              "name": "buyer",
              "type": "address"
            },
            {
              "internalType": "uint256",
              "name": "id",
              "type": "uint256"
            },
            {
              "internalType": "uint256",
              "name": "homeId",
              "type": "uint256"
            },
            {
              "internalType": "uint256",
              "name": "units",
              "type": "uint256"
            },
            {
              "internalType": "bool",
              "name": "fulfilled",
              "type": "bool"
            }
          ],
          "internalType": "struct Payment.Tx",
          "name": "",
          "type": "tuple"
        }
      ],
      "stateMutability": "view",
      "type": "function"
    },
    {
      "inputs": [
        {
          "internalType": "address",
          "name": "token",
          "type": "address"
        },
        {
          "internalType": "bool",
          "name": "status",
          "type": "bool"
        }
      ],
      "name": "updateTokenAccepted",
      "outputs": [],
      "stateMutability": "nonpayable",
      "type": "function"
    },
    {
      "inputs": [
        {
          "internalType": "contract IERC20",
          "name": "token",
          "type": "address"
        },
        {
          "internalType": "address",
          "name": "to",
          "type": "address"
        },
        {
          "internalType": "uint256",
          "name": "amount",
          "type": "uint256"
        }
      ],
      "name": "withdraw",
      "outputs": [],
      "stateMutability": "nonpayable",
      "type": "function"
    }
  ],
  "bytecode": "0x608060405234801561001057600080fd5b50604051610ce8380380610ce883398101604081905261002f916100f6565b806001600160a01b03811661005e57604051631e4fbdf760e01b81526000600482015260240160405180910390fd5b6100678161008e565b5050600180546001600160a01b0319166001600160a01b0392909216919091179055610130565b600080546001600160a01b038381166001600160a01b0319831681178455604051919092169283917f8be0079c531659141344cd1fd0a4f28419497f9722a3daafe3b4186f6b6457e09190a35050565b6001600160a01b03811681146100f357600080fd5b50565b6000806040838503121561010957600080fd5b8251610114816100de565b6020840151909250610125816100de565b809150509250929050565b610ba98061013f6000396000f3fe608060405234801561001057600080fd5b50600436106100be5760003560e01c8063d9caed1211610076578063f2fde38b1161005b578063f2fde38b14610176578063f34283ed14610189578063fb8f26981461019c57600080fd5b8063d9caed1214610150578063e948f1561461016357600080fd5b806382dc4a05116100a757806382dc4a05146100e05780638da5cb5b14610118578063a189ef471461013d57600080fd5b80634748d5e4146100c3578063715018a6146100d8575b600080fd5b6100d66100d13660046109ca565b6101fc565b005b6100d661069e565b6101036100ee3660046109ff565b60036020526000908152604090205460ff1681565b60405190151581526020015b60405180910390f35b6000546001600160a01b03165b6040516001600160a01b03909116815260200161010f565b6100d661014b366004610a31565b6106b2565b6100d661015e366004610a6a565b6106e5565b6100d6610171366004610aab565b6107ca565b6100d66101843660046109ff565b61080c565b600154610125906001600160a01b031681565b6101af6101aa366004610aab565b610863565b60405161010f9190600060a0820190506001600160a01b03835116825260208301516020830152604083015160408301526060830151606083015260808301511515608083015292915050565b3360008290036102535760405162461bcd60e51b815260206004820152600d60248201527f496e76616c696420556e6974730000000000000000000000000000000000000060448201526064015b60405180910390fd5b6001600160a01b03841660009081526003602052604090205460ff166102bb5760405162461bcd60e51b815260206004820152601160248201527f556e737570706f7274656420546f6b656e000000000000000000000000000000604482015260640161024a565b6001546040517f67975ae3000000000000000000000000000000000000000000000000000000008152600481018590526000918291829182916001600160a01b03909116906367975ae3906024016080604051808303816000875af1158015610328573d6000803e3d6000fd5b505050506040513d601f19601f8201168201806040525081019061034c9190610ac4565b9350935093509350806000036103a45760405162461bcd60e51b815260206004820152600e60248201527f556e6c6973746564204173736574000000000000000000000000000000000000604482015260640161024a565b60006103b08386610b10565b9050868110156104025760405162461bcd60e51b815260206004820152601860248201527f546f6f206d75636820756e697473207265717565737465640000000000000000604482015260640161024a565b600061040e8589610b29565b6040517f23b872dd0000000000000000000000000000000000000000000000000000000081526001600160a01b03898116600483015230602483015260448201839052919250908b16906323b872dd906064016020604051808303816000875af1158015610480573d6000803e3d6000fd5b505050506040513d601f19601f820116820180604052508101906104a49190610b40565b6104f05760405162461bcd60e51b815260206004820152600d60248201527f5061796d656e74204572726f7200000000000000000000000000000000000000604482015260640161024a565b600280546040805160a0810182526001600160a01b03808c168252602082018481528284018f8152606084018f8152600060808601818152600189018a559890528451600588027f405787fa12a823e0f2b7631cc41b3ba8828b3321ca811111fa75cd3aa3bb5ace810180549290961673ffffffffffffffffffffffffffffffffffffffff199092169190911790945591517f405787fa12a823e0f2b7631cc41b3ba8828b3321ca811111fa75cd3aa3bb5acf840155517f405787fa12a823e0f2b7631cc41b3ba8828b3321ca811111fa75cd3aa3bb5ad0830155517f405787fa12a823e0f2b7631cc41b3ba8828b3321ca811111fa75cd3aa3bb5ad182015593517f405787fa12a823e0f2b7631cc41b3ba8828b3321ca811111fa75cd3aa3bb5ad2909401805494151560ff1990951694909417909355519091907fadb9c81a287e995b122cca833479e7a367a1ee676605607a16fc95ccb9285e47906106889084908c908f908f9089909485526001600160a01b0393909316602085015260408401919091526060830152608082015260a00190565b60405180910390a1505050505050505050505050565b6106a6610912565b6106b06000610958565b565b6106ba610912565b6001600160a01b03919091166000908152600360205260409020805460ff1916911515919091179055565b6106ed610912565b6040517fa9059cbb0000000000000000000000000000000000000000000000000000000081526001600160a01b0383811660048301526024820183905284169063a9059cbb906044016020604051808303816000875af1158015610755573d6000803e3d6000fd5b505050506040513d601f19601f820116820180604052508101906107799190610b40565b6107c55760405162461bcd60e51b815260206004820152600f60248201527f5769746864726177204661696c65640000000000000000000000000000000000604482015260640161024a565b505050565b6107d2610912565b6001600282815481106107e7576107e7610b5d565b60009182526020909120600590910201600401805460ff191691151591909117905550565b610814610912565b6001600160a01b038116610857576040517f1e4fbdf70000000000000000000000000000000000000000000000000000000081526000600482015260240161024a565b61086081610958565b50565b6108a06040518060a0016040528060006001600160a01b031681526020016000815260200160008152602001600081526020016000151581525090565b600282815481106108b3576108b3610b5d565b60009182526020918290206040805160a081018252600590930290910180546001600160a01b031683526001810154938301939093526002830154908201526003820154606082015260049091015460ff161515608082015292915050565b6000546001600160a01b031633146106b0576040517f118cdaa700000000000000000000000000000000000000000000000000000000815233600482015260240161024a565b600080546001600160a01b0383811673ffffffffffffffffffffffffffffffffffffffff19831681178455604051919092169283917f8be0079c531659141344cd1fd0a4f28419497f9722a3daafe3b4186f6b6457e09190a35050565b6001600160a01b038116811461086057600080fd5b6000806000606084860312156109df57600080fd5b83356109ea816109b5565b95602085013595506040909401359392505050565b600060208284031215610a1157600080fd5b8135610a1c816109b5565b9392505050565b801515811461086057600080fd5b60008060408385031215610a4457600080fd5b8235610a4f816109b5565b91506020830135610a5f81610a23565b809150509250929050565b600080600060608486031215610a7f57600080fd5b8335610a8a816109b5565b92506020840135610a9a816109b5565b929592945050506040919091013590565b600060208284031215610abd57600080fd5b5035919050565b60008060008060808587031215610ada57600080fd5b505082516020840151604085015160609095015191969095509092509050565b634e487b7160e01b600052601160045260246000fd5b81810381811115610b2357610b23610afa565b92915050565b8082028115828204841417610b2357610b23610afa565b600060208284031215610b5257600080fd5b8151610a1c81610a23565b634e487b7160e01b600052603260045260246000fdfea264697066735822122029884072b959b83d664f8a4625039160b3ef5e81ce62dbe35b09da4dcdcab79664736f6c63430008180033",
  "linkReferences": {},
  "deployedLinkReferences": {}
}