{
  "_format": "hh-sol-artifact-1",
  "contractName": "Home",
  "sourceName": "contracts/Home.sol",
  "abi": [
    {
      "inputs": [],
      "stateMutability": "nonpayable",
      "type": "constructor"
    },
    {
      "inputs": [],
      "name": "ERC721EnumerableForbiddenBatchMint",
      "type": "error"
    },
    {
      "inputs": [
        {
          "internalType": "address",
          "name": "sender",
          "type": "address"
        },
        {
          "internalType": "uint256",
          "name": "tokenId",
          "type": "uint256"
        },
        {
          "internalType": "address",
          "name": "owner",
          "type": "address"
        }
      ],
      "name": "ERC721IncorrectOwner",
      "type": "error"
    },
    {
      "inputs": [
        {
          "internalType": "address",
          "name": "operator",
          "type": "address"
        },
        {
          "internalType": "uint256",
          "name": "tokenId",
          "type": "uint256"
        }
      ],
      "name": "ERC721InsufficientApproval",
      "type": "error"
    },
    {
      "inputs": [
        {
          "internalType": "address",
          "name": "approver",
          "type": "address"
        }
      ],
      "name": "ERC721InvalidApprover",
      "type": "error"
    },
    {
      "inputs": [
        {
          "internalType": "address",
          "name": "operator",
          "type": "address"
        }
      ],
      "name": "ERC721InvalidOperator",
      "type": "error"
    },
    {
      "inputs": [
        {
          "internalType": "address",
          "name": "owner",
          "type": "address"
        }
      ],
      "name": "ERC721InvalidOwner",
      "type": "error"
    },
    {
      "inputs": [
        {
          "internalType": "address",
          "name": "receiver",
          "type": "address"
        }
      ],
      "name": "ERC721InvalidReceiver",
      "type": "error"
    },
    {
      "inputs": [
        {
          "internalType": "address",
          "name": "sender",
          "type": "address"
        }
      ],
      "name": "ERC721InvalidSender",
      "type": "error"
    },
    {
      "inputs": [
        {
          "internalType": "uint256",
          "name": "tokenId",
          "type": "uint256"
        }
      ],
      "name": "ERC721NonexistentToken",
      "type": "error"
    },
    {
      "inputs": [
        {
          "internalType": "address",
          "name": "owner",
          "type": "address"
        },
        {
          "internalType": "uint256",
          "name": "index",
          "type": "uint256"
        }
      ],
      "name": "ERC721OutOfBoundsIndex",
      "type": "error"
    },
    {
      "inputs": [],
      "name": "EnforcedPause",
      "type": "error"
    },
    {
      "inputs": [],
      "name": "ExpectedPause",
      "type": "error"
    },
    {
      "inputs": [
        {
          "internalType": "address",
          "name": "owner",
          "type": "address"
        }
      ],
      "name": "OwnableInvalidOwner",
      "type": "error"
    },
    {
      "inputs": [
        {
          "internalType": "address",
          "name": "account",
          "type": "address"
        }
      ],
      "name": "OwnableUnauthorizedAccount",
      "type": "error"
    },
    {
      "anonymous": false,
      "inputs": [
        {
          "indexed": true,
          "internalType": "address",
          "name": "owner",
          "type": "address"
        },
        {
          "indexed": true,
          "internalType": "address",
          "name": "approved",
          "type": "address"
        },
        {
          "indexed": true,
          "internalType": "uint256",
          "name": "tokenId",
          "type": "uint256"
        }
      ],
      "name": "Approval",
      "type": "event"
    },
    {
      "anonymous": false,
      "inputs": [
        {
          "indexed": true,
          "internalType": "address",
          "name": "owner",
          "type": "address"
        },
        {
          "indexed": true,
          "internalType": "address",
          "name": "operator",
          "type": "address"
        },
        {
          "indexed": false,
          "internalType": "bool",
          "name": "approved",
          "type": "bool"
        }
      ],
      "name": "ApprovalForAll",
      "type": "event"
    },
    {
      "anonymous": false,
      "inputs": [
        {
          "indexed": false,
          "internalType": "uint256",
          "name": "_fromTokenId",
          "type": "uint256"
        },
        {
          "indexed": false,
          "internalType": "uint256",
          "name": "_toTokenId",
          "type": "uint256"
        }
      ],
      "name": "BatchMetadataUpdate",
      "type": "event"
    },
    {
      "anonymous": false,
      "inputs": [
        {
          "indexed": false,
          "internalType": "uint256",
          "name": "_tokenId",
          "type": "uint256"
        }
      ],
      "name": "MetadataUpdate",
      "type": "event"
    },
    {
      "anonymous": false,
      "inputs": [
        {
          "indexed": true,
          "internalType": "address",
          "name": "previousOwner",
          "type": "address"
        },
        {
          "indexed": true,
          "internalType": "address",
          "name": "newOwner",
          "type": "address"
        }
      ],
      "name": "OwnershipTransferred",
      "type": "event"
    },
    {
      "anonymous": false,
      "inputs": [
        {
          "indexed": false,
          "internalType": "address",
          "name": "account",
          "type": "address"
        }
      ],
      "name": "Paused",
      "type": "event"
    },
    {
      "anonymous": false,
      "inputs": [
        {
          "indexed": true,
          "internalType": "address",
          "name": "from",
          "type": "address"
        },
        {
          "indexed": true,
          "internalType": "address",
          "name": "to",
          "type": "address"
        },
        {
          "indexed": true,
          "internalType": "uint256",
          "name": "tokenId",
          "type": "uint256"
        }
      ],
      "name": "Transfer",
      "type": "event"
    },
    {
      "anonymous": false,
      "inputs": [
        {
          "indexed": false,
          "internalType": "address",
          "name": "account",
          "type": "address"
        }
      ],
      "name": "Unpaused",
      "type": "event"
    },
    {
      "inputs": [
        {
          "internalType": "address",
          "name": "to",
          "type": "address"
        },
        {
          "internalType": "uint256",
          "name": "tokenId",
          "type": "uint256"
        }
      ],
      "name": "approve",
      "outputs": [],
      "stateMutability": "nonpayable",
      "type": "function"
    },
    {
      "inputs": [
        {
          "internalType": "address",
          "name": "owner",
          "type": "address"
        }
      ],
      "name": "balanceOf",
      "outputs": [
        {
          "internalType": "uint256",
          "name": "",
          "type": "uint256"
        }
      ],
      "stateMutability": "view",
      "type": "function"
    },
    {
      "inputs": [
        {
          "internalType": "uint256",
          "name": "tokenId",
          "type": "uint256"
        }
      ],
      "name": "burn",
      "outputs": [],
      "stateMutability": "nonpayable",
      "type": "function"
    },
    {
      "inputs": [
        {
          "internalType": "uint256",
          "name": "tokenId",
          "type": "uint256"
        }
      ],
      "name": "getApproved",
      "outputs": [
        {
          "internalType": "address",
          "name": "",
          "type": "address"
        }
      ],
      "stateMutability": "view",
      "type": "function"
    },
    {
      "inputs": [
        {
          "internalType": "address",
          "name": "owner",
          "type": "address"
        },
        {
          "internalType": "address",
          "name": "operator",
          "type": "address"
        }
      ],
      "name": "isApprovedForAll",
      "outputs": [
        {
          "internalType": "bool",
          "name": "",
          "type": "bool"
        }
      ],
      "stateMutability": "view",
      "type": "function"
    },
    {
      "inputs": [
        {
          "internalType": "address",
          "name": "to",
          "type": "address"
        },
        {
          "internalType": "string",
          "name": "uri",
          "type": "string"
        }
      ],
      "name": "makeHome",
      "outputs": [
        {
          "internalType": "uint256",
          "name": "tokenId",
          "type": "uint256"
        }
      ],
      "stateMutability": "nonpayable",
      "type": "function"
    },
    {
      "inputs": [],
      "name": "name",
      "outputs": [
        {
          "internalType": "string",
          "name": "",
          "type": "string"
        }
      ],
      "stateMutability": "view",
      "type": "function"
    },
    {
      "inputs": [],
      "name": "owner",
      "outputs": [
        {
          "internalType": "address",
          "name": "",
          "type": "address"
        }
      ],
      "stateMutability": "view",
      "type": "function"
    },
    {
      "inputs": [
        {
          "internalType": "uint256",
          "name": "tokenId",
          "type": "uint256"
        }
      ],
      "name": "ownerOf",
      "outputs": [
        {
          "internalType": "address",
          "name": "",
          "type": "address"
        }
      ],
      "stateMutability": "view",
      "type": "function"
    },
    {
      "inputs": [],
      "name": "pause",
      "outputs": [],
      "stateMutability": "nonpayable",
      "type": "function"
    },
    {
      "inputs": [],
      "name": "paused",
      "outputs": [
        {
          "internalType": "bool",
          "name": "",
          "type": "bool"
        }
      ],
      "stateMutability": "view",
      "type": "function"
    },
    {
      "inputs": [],
      "name": "renounceOwnership",
      "outputs": [],
      "stateMutability": "nonpayable",
      "type": "function"
    },
    {
      "inputs": [
        {
          "internalType": "address",
          "name": "from",
          "type": "address"
        },
        {
          "internalType": "address",
          "name": "to",
          "type": "address"
        },
        {
          "internalType": "uint256",
          "name": "tokenId",
          "type": "uint256"
        }
      ],
      "name": "safeTransferFrom",
      "outputs": [],
      "stateMutability": "nonpayable",
      "type": "function"
    },
    {
      "inputs": [
        {
          "internalType": "address",
          "name": "from",
          "type": "address"
        },
        {
          "internalType": "address",
          "name": "to",
          "type": "address"
        },
        {
          "internalType": "uint256",
          "name": "tokenId",
          "type": "uint256"
        },
        {
          "internalType": "bytes",
          "name": "data",
          "type": "bytes"
        }
      ],
      "name": "safeTransferFrom",
      "outputs": [],
      "stateMutability": "nonpayable",
      "type": "function"
    },
    {
      "inputs": [
        {
          "internalType": "address",
          "name": "operator",
          "type": "address"
        },
        {
          "internalType": "bool",
          "name": "approved",
          "type": "bool"
        }
      ],
      "name": "setApprovalForAll",
      "outputs": [],
      "stateMutability": "nonpayable",
      "type": "function"
    },
    {
      "inputs": [
        {
          "internalType": "bytes4",
          "name": "interfaceId",
          "type": "bytes4"
        }
      ],
      "name": "supportsInterface",
      "outputs": [
        {
          "internalType": "bool",
          "name": "",
          "type": "bool"
        }
      ],
      "stateMutability": "view",
      "type": "function"
    },
    {
      "inputs": [],
      "name": "symbol",
      "outputs": [
        {
          "internalType": "string",
          "name": "",
          "type": "string"
        }
      ],
      "stateMutability": "view",
      "type": "function"
    },
    {
      "inputs": [
        {
          "internalType": "uint256",
          "name": "index",
          "type": "uint256"
        }
      ],
      "name": "tokenByIndex",
      "outputs": [
        {
          "internalType": "uint256",
          "name": "",
          "type": "uint256"
        }
      ],
      "stateMutability": "view",
      "type": "function"
    },
    {
      "inputs": [
        {
          "internalType": "address",
          "name": "owner",
          "type": "address"
        },
        {
          "internalType": "uint256",
          "name": "index",
          "type": "uint256"
        }
      ],
      "name": "tokenOfOwnerByIndex",
      "outputs": [
        {
          "internalType": "uint256",
          "name": "",
          "type": "uint256"
        }
      ],
      "stateMutability": "view",
      "type": "function"
    },
    {
      "inputs": [
        {
          "internalType": "uint256",
          "name": "tokenId",
          "type": "uint256"
        }
      ],
      "name": "tokenURI",
      "outputs": [
        {
          "internalType": "string",
          "name": "",
          "type": "string"
        }
      ],
      "stateMutability": "view",
      "type": "function"
    },
    {
      "inputs": [],
      "name": "totalSupply",
      "outputs": [
        {
          "internalType": "uint256",
          "name": "",
          "type": "uint256"
        }
      ],
      "stateMutability": "view",
      "type": "function"
    },
    {
      "inputs": [
        {
          "internalType": "address",
          "name": "from",
          "type": "address"
        },
        {
          "internalType": "address",
          "name": "to",
          "type": "address"
        },
        {
          "internalType": "uint256",
          "name": "tokenId",
          "type": "uint256"
        }
      ],
      "name": "transferFrom",
      "outputs": [],
      "stateMutability": "nonpayable",
      "type": "function"
    },
    {
      "inputs": [
        {
          "internalType": "address",
          "name": "newOwner",
          "type": "address"
        }
      ],
      "name": "transferOwnership",
      "outputs": [],
      "stateMutability": "nonpayable",
      "type": "function"
    },
    {
      "inputs": [],
      "name": "unpause",
      "outputs": [],
      "stateMutability": "nonpayable",
      "type": "function"
    }
  ],
  "bytecode": "0x60806040526001600c553480156200001657600080fd5b50336040518060400160405280600a8152602001694672616374486f6d657360b01b81525060405180604001604052806004815260200163484f4d4560e01b8152508160009081620000699190620001c7565b506001620000788282620001c7565b5050600b805460ff19169055506001600160a01b038116620000b457604051631e4fbdf760e01b81526000600482015260240160405180910390fd5b620000bf81620000c6565b5062000293565b600b80546001600160a01b03838116610100818102610100600160a81b031985161790945560405193909204169182907f8be0079c531659141344cd1fd0a4f28419497f9722a3daafe3b4186f6b6457e090600090a35050565b634e487b7160e01b600052604160045260246000fd5b600181811c908216806200014b57607f821691505b6020821081036200016c57634e487b7160e01b600052602260045260246000fd5b50919050565b601f821115620001c2576000816000526020600020601f850160051c810160208610156200019d5750805b601f850160051c820191505b81811015620001be57828155600101620001a9565b5050505b505050565b81516001600160401b03811115620001e357620001e362000120565b620001fb81620001f4845462000136565b8462000172565b602080601f8311600181146200023357600084156200021a5750858301515b600019600386901b1c1916600185901b178555620001be565b600085815260208120601f198616915b82811015620002645788860151825594840194600190910190840162000243565b5085821015620002835787850151600019600388901b60f8161c191681555b5050505050600190811b01905550565b611bdb80620002a36000396000f3fe608060405234801561001057600080fd5b50600436106101985760003560e01c80635c975abb116100e357806395d89b411161008c578063c87b56dd11610066578063c87b56dd1461032f578063e985e9c514610342578063f2fde38b1461037e57600080fd5b806395d89b4114610301578063a22cb46514610309578063b88d4fde1461031c57600080fd5b8063715018a6116100bd578063715018a6146102db5780638456cb59146102e35780638da5cb5b146102eb57600080fd5b80635c975abb146102aa5780636352211e146102b557806370a08231146102c857600080fd5b806323b872dd1161014557806342842e0e1161011f57806342842e0e1461027157806342966c68146102845780634f6ccce71461029757600080fd5b806323b872dd146102435780632f745c59146102565780633f4ba83a1461026957600080fd5b8063081812fc11610176578063081812fc146101fb578063095ea7b31461022657806318160ddd1461023b57600080fd5b806301b5f7bf1461019d57806301ffc9a7146101c357806306fdde03146101e6575b600080fd5b6101b06101ab3660046116e8565b610391565b6040519081526020015b60405180910390f35b6101d66101d1366004611760565b6103cb565b60405190151581526020016101ba565b6101ee6103d6565b6040516101ba91906117cd565b61020e6102093660046117e0565b610468565b6040516001600160a01b0390911681526020016101ba565b6102396102343660046117f9565b610491565b005b6008546101b0565b610239610251366004611823565b6104a0565b6101b06102643660046117f9565b610549565b6102396105ae565b61023961027f366004611823565b6105c0565b6102396102923660046117e0565b6105e0565b6101b06102a53660046117e0565b6105ec565b600b5460ff166101d6565b61020e6102c33660046117e0565b610645565b6101b06102d636600461185f565b610650565b6102396106b1565b6102396106c3565b600b5461010090046001600160a01b031661020e565b6101ee6106d3565b61023961031736600461187a565b6106e2565b61023961032a3660046118b6565b6106ed565b6101ee61033d3660046117e0565b610704565b6101d6610350366004611932565b6001600160a01b03918216600090815260056020908152604080832093909416825291909152205460ff1690565b61023961038c36600461185f565b61070f565b600061039b610766565b600c80549060006103ab8361197b565b9190505590506103bb83826107b2565b6103c581836107cc565b92915050565b60006103c58261081c565b6060600080546103e590611994565b80601f016020809104026020016040519081016040528092919081815260200182805461041190611994565b801561045e5780601f106104335761010080835404028352916020019161045e565b820191906000526020600020905b81548152906001019060200180831161044157829003601f168201915b5050505050905090565b60006104738261085a565b506000828152600460205260409020546001600160a01b03166103c5565b61049c828233610893565b5050565b6001600160a01b0382166104cf57604051633250574960e11b8152600060048201526024015b60405180910390fd5b60006104dc8383336108a0565b9050836001600160a01b0316816001600160a01b031614610543576040517f64283d7b0000000000000000000000000000000000000000000000000000000081526001600160a01b03808616600483015260248201849052821660448201526064016104c6565b50505050565b600061055483610650565b82106105855760405163295f44f760e21b81526001600160a01b0384166004820152602481018390526044016104c6565b506001600160a01b03919091166000908152600660209081526040808320938352929052205490565b6105b6610766565b6105be6108b5565b565b6105db838383604051806020016040528060008152506106ed565b505050565b61049c600082336108a0565b60006105f760085490565b82106106205760405163295f44f760e21b815260006004820152602481018390526044016104c6565b60088281548110610633576106336119ce565b90600052602060002001549050919050565b60006103c58261085a565b60006001600160a01b038216610695576040517f89c62b64000000000000000000000000000000000000000000000000000000008152600060048201526024016104c6565b506001600160a01b031660009081526003602052604090205490565b6106b9610766565b6105be6000610907565b6106cb610766565b6105be610978565b6060600180546103e590611994565b61049c3383836109b5565b6106f88484846104a0565b61054384848484610a6d565b60606103c582610b96565b610717610766565b6001600160a01b03811661075a576040517f1e4fbdf7000000000000000000000000000000000000000000000000000000008152600060048201526024016104c6565b61076381610907565b50565b600b546001600160a01b036101009091041633146105be576040517f118cdaa70000000000000000000000000000000000000000000000000000000081523360048201526024016104c6565b61049c828260405180602001604052806000815250610c9f565b6000828152600a602052604090206107e48282611a34565b506040518281527ff8e1a15aba9398e019f0b49df1a4fde98ee17ae345cb5f6b5e2c27f5033e8ce79060200160405180910390a15050565b60006001600160e01b031982167f490649060000000000000000000000000000000000000000000000000000000014806103c557506103c582610cb6565b6000818152600260205260408120546001600160a01b0316806103c557604051637e27328960e01b8152600481018490526024016104c6565b6105db8383836001610cf4565b60006108ad848484610e3f565b949350505050565b6108bd610e54565b600b805460ff191690557f5db9ee0a495bf2e6ff9c91a7834c1ba4fdd244a5e8aa4e537bd38aeae4b073aa335b6040516001600160a01b03909116815260200160405180910390a1565b600b80546001600160a01b038381166101008181027fffffffffffffffffffffff0000000000000000000000000000000000000000ff85161790945560405193909204169182907f8be0079c531659141344cd1fd0a4f28419497f9722a3daafe3b4186f6b6457e090600090a35050565b610980610e90565b600b805460ff191660011790557f62e78cea01bee320cd4e420270b5ea74000d11b0c9f74754ebdbfc544b05a2586108ea3390565b6001600160a01b038216610a00576040517f5b08ba180000000000000000000000000000000000000000000000000000000081526001600160a01b03831660048201526024016104c6565b6001600160a01b03838116600081815260056020908152604080832094871680845294825291829020805460ff191686151590811790915591519182527f17307eab39ab6107e8899845ad3d59bd9653f200f220920489ca2b5937696c31910160405180910390a3505050565b6001600160a01b0383163b1561054357604051630a85bd0160e11b81526001600160a01b0384169063150b7a0290610aaf903390889087908790600401611af4565b6020604051808303816000875af1925050508015610aea575060408051601f3d908101601f19168201909252610ae791810190611b30565b60015b610b53573d808015610b18576040519150601f19603f3d011682016040523d82523d6000602084013e610b1d565b606091505b508051600003610b4b57604051633250574960e11b81526001600160a01b03851660048201526024016104c6565b805181602001fd5b6001600160e01b03198116630a85bd0160e11b14610b8f57604051633250574960e11b81526001600160a01b03851660048201526024016104c6565b5050505050565b6060610ba18261085a565b506000828152600a602052604081208054610bbb90611994565b80601f0160208091040260200160405190810160405280929190818152602001828054610be790611994565b8015610c345780601f10610c0957610100808354040283529160200191610c34565b820191906000526020600020905b815481529060010190602001808311610c1757829003601f168201915b505050505090506000610c5260408051602081019091526000815290565b90508051600003610c64575092915050565b815115610c96578082604051602001610c7e929190611b4d565b60405160208183030381529060405292505050919050565b6108ad84610ecd565b610ca98383610f42565b6105db6000848484610a6d565b60006001600160e01b031982167f780e9d630000000000000000000000000000000000000000000000000000000014806103c557506103c582610fc0565b8080610d0857506001600160a01b03821615155b15610e02576000610d188461085a565b90506001600160a01b03831615801590610d445750826001600160a01b0316816001600160a01b031614155b8015610d7657506001600160a01b0380821660009081526005602090815260408083209387168352929052205460ff16155b15610db8576040517fa9fbf51f0000000000000000000000000000000000000000000000000000000081526001600160a01b03841660048201526024016104c6565b8115610e005783856001600160a01b0316826001600160a01b03167f8c5be1e5ebec7d5bd14f71427d1e84f3dd0314c0f7b2291e5b200ac8c7c3b92560405160405180910390a45b505b50506000908152600460205260409020805473ffffffffffffffffffffffffffffffffffffffff19166001600160a01b0392909216919091179055565b6000610e49610e90565b6108ad84848461105b565b600b5460ff166105be576040517f8dfc202b00000000000000000000000000000000000000000000000000000000815260040160405180910390fd5b600b5460ff16156105be576040517fd93c066500000000000000000000000000000000000000000000000000000000815260040160405180910390fd5b6060610ed88261085a565b506000610ef060408051602081019091526000815290565b90506000815111610f105760405180602001604052806000815250610f3b565b80610f1a84611128565b604051602001610f2b929190611b4d565b6040516020818303038152906040525b9392505050565b6001600160a01b038216610f6c57604051633250574960e11b8152600060048201526024016104c6565b6000610f7a838360006108a0565b90506001600160a01b038116156105db576040517f73c6ac6e000000000000000000000000000000000000000000000000000000008152600060048201526024016104c6565b60006001600160e01b031982167f80ac58cd00000000000000000000000000000000000000000000000000000000148061102357506001600160e01b031982167f5b5e139f00000000000000000000000000000000000000000000000000000000145b806103c557507f01ffc9a7000000000000000000000000000000000000000000000000000000006001600160e01b03198316146103c5565b6000806110698585856111c8565b90506001600160a01b0381166110c6576110c184600880546000838152600960205260408120829055600182018355919091527ff3f7a9fe364faab93b216da50a3214154f22a0a2b415b23a84c8169e8b636ee30155565b6110e9565b846001600160a01b0316816001600160a01b0316146110e9576110e981856112ce565b6001600160a01b038516611105576111008461135f565b6108ad565b846001600160a01b0316816001600160a01b0316146108ad576108ad858561140e565b606060006111358361145e565b600101905060008167ffffffffffffffff8111156111555761115561165c565b6040519080825280601f01601f19166020018201604052801561117f576020820181803683370190505b5090508181016020015b600019017f3031323334353637383961626364656600000000000000000000000000000000600a86061a8153600a850494508461118957509392505050565b6000828152600260205260408120546001600160a01b03908116908316156111f5576111f5818486611540565b6001600160a01b0381161561123357611212600085600080610cf4565b6001600160a01b038116600090815260036020526040902080546000190190555b6001600160a01b03851615611262576001600160a01b0385166000908152600360205260409020805460010190555b600084815260026020526040808220805473ffffffffffffffffffffffffffffffffffffffff19166001600160a01b0389811691821790925591518793918516917fddf252ad1be2c89b69c2b068fc378daa952ba7f163c4a11628f55a4df523b3ef91a4949350505050565b60006112d983610650565b60008381526007602052604090205490915080821461132c576001600160a01b03841660009081526006602090815260408083208584528252808320548484528184208190558352600790915290208190555b5060009182526007602090815260408084208490556001600160a01b039094168352600681528383209183525290812055565b60085460009061137190600190611b7c565b60008381526009602052604081205460088054939450909284908110611399576113996119ce565b9060005260206000200154905080600883815481106113ba576113ba6119ce565b60009182526020808320909101929092558281526009909152604080822084905585825281205560088054806113f2576113f2611b8f565b6001900381819060005260206000200160009055905550505050565b6000600161141b84610650565b6114259190611b7c565b6001600160a01b039093166000908152600660209081526040808320868452825280832085905593825260079052919091209190915550565b6000807a184f03e93ff9f4daa797ed6e38ed64bf6a1f01000000000000000083106114a7577a184f03e93ff9f4daa797ed6e38ed64bf6a1f010000000000000000830492506040015b6d04ee2d6d415b85acef810000000083106114d3576d04ee2d6d415b85acef8100000000830492506020015b662386f26fc1000083106114f157662386f26fc10000830492506010015b6305f5e1008310611509576305f5e100830492506008015b612710831061151d57612710830492506004015b6064831061152f576064830492506002015b600a83106103c55760010192915050565b61154b8383836115bd565b6105db576001600160a01b03831661157957604051637e27328960e01b8152600481018290526024016104c6565b6040517f177e802f0000000000000000000000000000000000000000000000000000000081526001600160a01b0383166004820152602481018290526044016104c6565b60006001600160a01b038316158015906108ad5750826001600160a01b0316846001600160a01b0316148061161757506001600160a01b0380851660009081526005602090815260408083209387168352929052205460ff165b806108ad5750506000908152600460205260409020546001600160a01b03908116911614919050565b80356001600160a01b038116811461165757600080fd5b919050565b634e487b7160e01b600052604160045260246000fd5b600067ffffffffffffffff8084111561168d5761168d61165c565b604051601f8501601f19908116603f011681019082821181831017156116b5576116b561165c565b816040528093508581528686860111156116ce57600080fd5b858560208301376000602087830101525050509392505050565b600080604083850312156116fb57600080fd5b61170483611640565b9150602083013567ffffffffffffffff81111561172057600080fd5b8301601f8101851361173157600080fd5b61174085823560208401611672565b9150509250929050565b6001600160e01b03198116811461076357600080fd5b60006020828403121561177257600080fd5b8135610f3b8161174a565b60005b83811015611798578181015183820152602001611780565b50506000910152565b600081518084526117b981602086016020860161177d565b601f01601f19169290920160200192915050565b602081526000610f3b60208301846117a1565b6000602082840312156117f257600080fd5b5035919050565b6000806040838503121561180c57600080fd5b61181583611640565b946020939093013593505050565b60008060006060848603121561183857600080fd5b61184184611640565b925061184f60208501611640565b9150604084013590509250925092565b60006020828403121561187157600080fd5b610f3b82611640565b6000806040838503121561188d57600080fd5b61189683611640565b9150602083013580151581146118ab57600080fd5b809150509250929050565b600080600080608085870312156118cc57600080fd5b6118d585611640565b93506118e360208601611640565b925060408501359150606085013567ffffffffffffffff81111561190657600080fd5b8501601f8101871361191757600080fd5b61192687823560208401611672565b91505092959194509250565b6000806040838503121561194557600080fd5b61194e83611640565b915061195c60208401611640565b90509250929050565b634e487b7160e01b600052601160045260246000fd5b60006001820161198d5761198d611965565b5060010190565b600181811c908216806119a857607f821691505b6020821081036119c857634e487b7160e01b600052602260045260246000fd5b50919050565b634e487b7160e01b600052603260045260246000fd5b601f8211156105db576000816000526020600020601f850160051c81016020861015611a0d5750805b601f850160051c820191505b81811015611a2c57828155600101611a19565b505050505050565b815167ffffffffffffffff811115611a4e57611a4e61165c565b611a6281611a5c8454611994565b846119e4565b602080601f831160018114611a975760008415611a7f5750858301515b600019600386901b1c1916600185901b178555611a2c565b600085815260208120601f198616915b82811015611ac657888601518255948401946001909101908401611aa7565b5085821015611ae45787850151600019600388901b60f8161c191681555b5050505050600190811b01905550565b60006001600160a01b03808716835280861660208401525083604083015260806060830152611b2660808301846117a1565b9695505050505050565b600060208284031215611b4257600080fd5b8151610f3b8161174a565b60008351611b5f81846020880161177d565b835190830190611b7381836020880161177d565b01949350505050565b818103818111156103c5576103c5611965565b634e487b7160e01b600052603160045260246000fdfea2646970667358221220a9e1148ca6e9b8b4b92e6e59c93f2777745998fe9d0b03d5de9033dc2edcf60564736f6c63430008180033",
  "linkReferences": {},
  "deployedLinkReferences": {}
}